:020000040000FA
:1000000088110020650500007F05000081050000C3
:1000100000000000000000000000000000000000E0
:100020000000000000000000000000008305000048
:1000300000000000000000008505000087050000AA
:1000400089050000890500008905000001080000FD
:100050002D0800000000000089050000890500004F
:100060008905000089050000890500008905000058
:100070008905000089050000890500008905000048
:100080008905000089050000890500008905000038
:100090008905000089050000890500008905000028
:1000A0008905000089050000000000000000000034
:1000B0000000000000000000000000000000000040
:1000C00000F002F800F031F80CA030C8083824180D
:1000D0002D18A246671EAB4654465D46AC4201D180
:1000E00000F023F87E460F3E0FCCB6460126334281
:1000F00000D0FB1AA246AB4633431847C810000095
:10010000D8100000103A02D378C878C1FAD8520744
:1001100001D330C830C101D504680C6070471FB5E9
:10012000C046C0461FBD10B510BD00F0D8FF114637
:10013000FFF7F5FF00F051F900F0F0FF03B4FFF70F
:10014000F2FF03BC00F0F4FF401E00BF00BF00BF81
:1001500000BF00BF00BF00BF00BF00BF00BF00BFA7
:1001600000BFF1D170470000401E00BF00BF00BFBC
:1001700000BF00BF00BF00BF00BF00BF00BF00BF87
:1001800000BFF1D17047000070B505460C46164619
:1001900002E00FCC0FC5103E102EFAD2082E02D36B
:1001A00003CC03C5083E042E07D301CC01C5361F7E
:1001B00003E021782970641C6D1C761EF9D270BD95
:1001C00000BFFEE710B5034600240C70012004E0D8
:1001D00000241C540C54441CA0B29042F8DB802430
:1001E0001C7010BD70B505460C461646207800F010
:1001F0001BFFAAA000F018FF012070BD31B500243C
:100200006846007801281CD16422A749A748FFF757
:10021000E9FF0446002C02D1A5A000F005FF00BFB5
:100220002346002B05D100BFABA2A4210020FFF77D
:10023000C7FF00BF002000F066FC0120A94908703C
:1002400000E000BF00BF38BD31B50024684600782B
:1002500001281CD1642294499448FFF7C3FF044647
:10026000002C02D1092000F013F900BF2346002B17
:1002700005D100BF98A2C3210020FFF7A1FF00BF56
:10028000012000F040FC01209649087000E000BF0A
:1002900000BF38BDF0B587B004460F4615460026AE
:1002A0001C2291496846FFF76FFF002C02D0012CF9
:1002B00012D108E00420019005200290062003904E
:1002C0000220049009E01D200190172002901520C3
:1002D00003901C20049000E000BF00BF6846057634
:1002E0000121417681766946204600F027FB0646CB
:1002F00000BF3346002B06D000BF77A2FF2102319A
:100300001846FFF75DFF00BF3946204600F018FF92
:1003100007B0F0BDFFB581B00E4614461D462A4613
:1003200021463046FFF74EFF23462A4631460095C8
:10033000019800F040FC074600BF3B46002B06D06A
:1003400000BF65A2FF2119311846FFF739FF00BF32
:1003500005B0F0BD10B565480078002806D001282A
:1003600005D0022815D0032834D124E000BF002294
:100370005F491046FFF78EFF01234B4A4B4900208F
:10038000FFF7C8FF022059490870642000F02AFDD9
:1003900021E0012257491046FFF77CFF6423424ABF
:1003A00042490120FFF7B6FF03205049087064203E
:1003B00000F018FD0FE000224E490120FFF76AFF10
:1003C0006423394A39490120FFF7A4FF0020474937
:1003D000087000E000BF00BF10BD08B50020012379
:1003E000122203210090132000F02EFE00BF42A035
:1003F00000F01AFE00BF022000F041F8022000F0D9
:1004000047F8022000F03BF8022000F041F8424893
:1004100042490861424843490861434843495122DF
:100420001201891848603F480068012108433D498E
:1004300008600B2000F023F83D483B49512212018F
:10044000891848603B483949891888603649091D30
:1004500036488018C160334800680221084331499A
:10046000086000BF1F4800780028FBD000201D490D
:10047000087031A000F0D8FDFFF76CFFF2E7032110
:100480000522120707231B02D2188300D1507047A0
:1004900001218140324A9160704700000D0A095BDA
:1004A0004F4B5D0D0A000000700000200C00002082
:1004B0000D0A446F6E652077697468204572726F0B
:1004C000722C20737069206D61737465722E2E2EEC
:1004D0005B4F4B5D0D0A00002E2E5C6D61696E2E28
:1004E00063000000000000207811000001000020DF
:1004F000FD01000049020000200A0D53504920412F
:100500007070205374617274696E672E2E2E095BB1
:100510004F4B5D0D0A200000030A030000650040F8
:100520000831004000F501400060004000F001404B
:10053000030B030008410040200A0D446174612050
:100540005472616E73666572203078303020646F4B
:100550006E652E2E2E095B4F4B5D0D0A20000000AC
:100560000005005003210C4802680A4302600B4852
:1005700002680A4302600A4880470A480047FEE7CB
:10058000FEE7FEE7FEE7FEE7FEE700000648074954
:10059000074A084B704700002405004054050040FE
:1005A0005D060000C10000008801002088110020C5
:1005B00088090020880900203248334908607047C4
:1005C0003248008CC0B2012812D13048808C00071C
:1005D000000F00280CD12D48806AF02108404028E7
:1005E00006D12A48C06A0840002801D1012070477E
:1005F0000020FCE72548008CC0B201282CD12348FC
:10060000808C0007000F002826D12048806AF02146
:100610000840002806D11D48C06A0840002801D1C2
:10062000012070471948806AF0210840102806D13F
:100630001648C06A0840002801D10120F1E713489C
:10064000806AF0210840302806D11048C06A08406E
:10065000002801D10120E4E70020E2E710B5FFF710
:10066000C9FF002805D00A480A494860C8130A494A
:100670008861FFF7A5FF002802D0012007498860A4
:1006800010BD00000024F40004000020C00F00F0A2
:10069000DFFF07C000050040006C0040000600407E
:1006A000F8B504460D46164600BF002C01D00120C7
:1006B00000E000200746002F05D100BFF7A2B221BD
:1006C000FFF77EFD00BF00BF206A002809D0FE486A
:1006D00000680090684605704680216A0098884747
:1006E00000BFF8BD70B504460D4600BF002C01D018
:1006F000012000E000200646002E05D100BFE7A241
:10070000A421FFF75DFD00BF00BF00BF002D01D099
:10071000012000E000200646002E05D100BFDFA228
:10072000A521FFF74DFD00BF00BF002020602880FD
:1007300070BD70B5044600BF002C01D0012000E060
:1007400000200646002E05D100BFD4A2DB21FFF712
:1007500037FD00BF00BF608B401C60832520005D1B
:10076000002807D1012125200155628B0021204658
:10077000FFF796FF20680521090240188069C5B27D
:100780002069002808D0E08AA18A884204DAE08A39
:10079000411CE18221690D54E089218B884213DAE2
:1007A000A068002807D0E089A189884203DAA06800
:1007B000E189405C00E000202168052212028918CE
:1007C000C861E089401CE081608B218B884216DB88
:1007D000207F00F097FAE68921460C31081FFFF7C9
:1007E00081FF21461431081FFFF77CFF02212420DE
:1007F0000155324601212046FFF752FF00BF70BD70
:1008000010B5B248806801280FD1B1484068042172
:100810000840002809D00020AC49886000F07CFA2C
:1008200004462046FFF785FF00BF10BD10B5A9485C
:100830008068012810D1A848406804210840002899
:100840000AD00020A3498860012000F065FA044620
:100850002046FFF76EFF00BF10BDFFB581B0054613
:100860000E46144600BF002C01D0012000E00020FD
:100870000746002F05D100BF88A27421FFF7A0FC16
:1008800000BF00BF256026710020A060A081E0812C
:100890002061A082E0826083208320772062002193
:1008A00024200155252001556846017C262001554C
:1008B00005B0F0BDFFB581B0044615461E460A9F3F
:1008C00000BF002D01D0012000E000200090009822
:1008D000002805D100BF71A29521FFF771FC00BF70
:1008E00000BF00BF002E01D0012000E000200090DA
:1008F0000098002805D100BF68A29621FFF760FC90
:1009000000BF00BF00BF002F01D0012000E0002089
:1009100000900098002805D100BF60A29721FFF742
:100920004FFC00BF00BF2C60002C01D0029800E0FB
:10093000002030800020388005B0F0BDF8B50646B4
:100940000C46002C01D10E20F8BD304600F0E4F931
:10095000054600BF002D01D0012000E00020074621
:10096000002F06D100BF4DA2FF211631FFF728FC52
:1009700000BF00BF002E02D0012E1AD10CE0E07E95
:10098000002801D0012000E0002003462A46032170
:100990005248FFF762FF0DE0E07E002801D0012001
:1009A00000E0002003462A4604214D48FFF755FF8A
:1009B00000E000BF00BF206900F0A4F9206900F04A
:1009C00098F9206900F09EF9606800F092F9E068FB
:1009D00000F08FF90021A0688A0005231B07072774
:1009E0003F02DB198700DA5100BF207C287760685E
:1009F00029680522120289188860E0682968891828
:100A0000C860A06829688918086120682968891861
:100A10004862A07E4000617E89000843217E084331
:100A200029688918486500212868FF3001308160F5
:100A300000BF0420285600F01BFA0746002F07D0FD
:100A400000BF16A2FF2145313846FFF7B9FB00BFB2
:100A500000BF00BF217D0420285600F015FA07468C
:100A6000002F07D000BF0DA2FF2146313846FFF707
:100A7000A7FB00BF00BF00202862042029680322D2
:100A800012028918486000BF285600F0B9F90746DD
:100A9000002F2CD000BF01A2FF2123E02E2E5C2EC0
:100AA0002E5C2E2E5C2E2E5C536F757263655C730C
:100AB00070695F6D61737465725C7370695F6D619D
:100AC000737465722E6300009411000000310040C1
:100AD000003300400041004000430040003000402F
:100AE000004000404D313846FFF76AFB00BF00BFB1
:100AF0000120296805221202891808600221242099
:100B00004155002020E770B50646304600F004F954
:100B1000044600BF002C01D0012000E00020054663
:100B2000002D06D100BFA14AFF216131FFF748FB2C
:100B300000BF00BF00BF0420205600F099F9054611
:100B4000002D07D000BF994AFF2164312846FFF7E6
:100B500037FB00BF00BF00BF0420205600F05BF948
:100B60000546002D07D000BF904AFF216531284679
:100B7000FFF726FB00BF00BF0020216805221202FC
:100B800089180860207F00F0C2F8FF20207700203D
:100B9000C0432168052212028918886021688918DB
:100BA000C860216889180861002322461946184642
:100BB000FFF753FE70BDFFB583B01546039800F0F4
:100BC000ABF8044600BF002C01D0012000E000205B
:100BD0000746002F06D100BF744AFF219D31FFF761
:100BE000EFFA00BF00BF00200290002601902620EF
:100BF000005D00280FD000BF01A800F07FF9074674
:100C0000002F07D000BF694AFF21A8313846FFF7FF
:100C1000D7FA00BF10E000BF0420205600F0FBF818
:100C20000746002F07D000BF604AFF21AD3138468C
:100C3000FFF7C6FA00BF00BF2420005D02282DD1B7
:100C40000C98A84201DD0C9800E028460646002ECC
:100C500021DD012124200155002060830021252071
:100C60000155268320460E30831E821F29460090A0
:100C70000498FFF71FFE20461630831E821F009047
:100C80000C990698FFF716FE207F00F040F82046EA
:100C900000F04CF804E00720029001E011200290DF
:100CA0002620005D002810D000BF6846007900F0C3
:100CB00036F90746002F07D000BF3C4AFF21D93143
:100CC0003846FFF77DFA00BF10E000BF0420205631
:100CD00000F096F80746002F07D000BF334AFF21E7
:100CE000DE313846FFF76CFA00BF00BF029807B04C
:100CF000F0BD03210522120707231B02D21883002F
:100D0000D150704701218140294A916070470121EB
:100D10008140274AD16070470146022904DA282021
:100D20004843244A801870470020FCE770B5044609
:100D300000BF002C01D0012000E000200546002D5E
:100D400005D100BF1CA2C321FFF73AFA00BF00BFC4
:100D5000A068002807D0E089A189884203DAA0684A
:100D6000E189405C00E00020216805221202891818
:100D7000C861E089401CE081E089218B884213DA58
:100D8000A068002807D0E089A189884203DAA0681A
:100D9000E189405C00E000202168052212028918E8
:100DA000C861E089401CE08170BD00009C0A000021
:100DB00000050050D40000202E2E5C2E2E5C2E2E1E
:100DC0005C2E2E5C536F757263655C7370695F6D2A
:100DD00061737465725C7370695F6D617374657261
:100DE0002E63000001B505E00098401E0090034806
:100DF000FFF7AAF900980028F6D108BDE703000024
:100E0000014600BFCA06D20E01209040664A10601B
:100E100000BF00207047014600BFCA06D20E012065
:100E20009040614A8032106000BF0020704730B5AA
:100E3000024600290FD010465C4B1B68C506ED0E1C
:100E40000124AC402340002B01D0012300E000230B
:100E50000B60002030BD0E20FCE7014600BFCA0633
:100E6000D20E01209040514A106000BF0020704710
:100E7000014600BFCA06D20E012090404B4A803284
:100E8000106000BF0020704770B504460D4629462B
:100E9000204600F051F8002070BD10B50246002930
:100EA0001ED0104600280CDA414B0407240F083CE2
:100EB000A408A4001B598407E40EE3401B069B0F03
:100EC0000BE0394B032424021B198408A4001B598E
:100ED0008407E40EE3401B069B0F0B70002010BD3F
:100EE0000E20FCE700BFBFF34F8F324830491C395A
:100EF000C860BFF34F8F00BF00BFFEE7014672B668
:100F00002D480078002801D0012000E00020087062
:100F100029480078401C284A10700020704701467C
:100F200025480078401E244A1070002902D1002074
:100F3000107062B60020704710B5002819DA1C4AFC
:100F400003071B0F083B9B089B00D2588307DC0E4E
:100F5000FF23A3409A438B071B0E8407E40EA34094
:100F60001A43134B0407240F083CA408A4001A5189
:100F700018E00D4A03231B02D21883089B00D258A5
:100F80008307DC0EFF23A3409A438B071B0E8407C5
:100F9000E40EA3401A43044B032424021B198408C3
:100FA000A4001A5110BD000000E100E000E200E0E2
:100FB0001CED00E00400FA050800002000BF4248D4
:100FC00080680128FBD100203F4988603F48806944
:100FD000C0B2704770B504460D4601260AE02046AF
:100FE000641E002804DB7D20C000FFF7BDF801E08F
:100FF000002603E0344880680128F0D100BF002CAF
:1010000005DB002030498860304880692870304610
:1010100070BD2E49C86100BF2B49C9690129FBD1A8
:101020000021294AD161704730B503460025284682
:101030006D1C1C5C05E02046FFF7EBFF28466D1C8D
:101040001C5C002CF7D130BDF8B507460C461546A0
:101050001E46204600F025F80021304600F02AF810
:101060001A48C4604661069800280DD0384600F042
:1010700018F80021284600F01DF814480561876023
:10108000012012494031C8621148104948620420C9
:10109000086001200F498860086000200A498860C4
:1010A000F8BD03210522120707231B02D218830073
:1010B000D150704710B58A0005231B07072424026E
:1010C0001B1984001A5110BD00210040002500406A
:1010D00000509D00002000407047704770477546E3
:1010E00000F022F8AE46050069465346C008C0002D
:1010F000854618B020B5FFF749FA60BC00274908BB
:10110000B6460026C0C5C0C5C0C5C0C5C0C5C0C59F
:10111000C0C5C0C5403D49008D4670470446C04625
:10112000C0462046FFF70AF8004870472401002017
:1011300001491820ABBEFEE7260002007047000000
:10114000F8B506460C463046FFF7E6FD054600BFFB
:10115000002D01D0012000E000200746002F06D11D
:1011600000BF044AFF218D31FFF72AF800BF00BFFE
:101170002C62F8BD9811000000000010FFFFFFFF77
:10118000FFFFFFFFFFFFFFFFFFFFFFFF0300000068
:1011900001000000020000002E2E5C2E2E5C2E2E80
:1011A0005C2E2E5C536F757263655C7370695F6D46
:1011B00061737465725C7370695F6D61737465727D
:1011C0002E630000D4110000000000200C0000007D
:1011D00004010000010000000024F40000000000F1
:04000005000000C136
:00000001FF
