:020000040000FA
:1000000088100020E1040000FB040000FD04000053
:1000100000000000000000000000000000000000E0
:10002000000000000000000000000000FF040000CD
:1000300000000000000000000105000003050000B2
:100040000505000005050000050500000505000088
:100050000505000000000000050500000505000082
:100060000505000005050000050500000505000068
:100070000505000005050000050500000505000058
:100080000505000005050000050500000505000048
:100090000505000005050000050500000505000038
:1000A000050500000505000000000000000000003C
:1000B0000000000000000000000000000000000040
:1000C00000F002F800F031F80CA030C8083824180D
:1000D0002D18A246671EAB4654465D46AC4201D180
:1000E00000F023F87E460F3E0FCCB6460126334281
:1000F00000D0FB1AA246AB4633431847F006000077
:1001000000070000103A02D378C878C1FAD8520725
:1001100001D330C830C101D504680C6070471FB5E9
:10012000C046C0461FBD10B510BD00F01FFB1146F4
:10013000FFF7F5FF00F0BEF800F037FB03B4FFF760
:10014000F2FF03BC00F03CFB401E00BF00BF00BF3D
:1001500000BF00BF00BF00BF00BF00BF00BF00BFA7
:1001600000BFF1D170470000401E00BF00BF00BFBC
:1001700000BF00BF00BF00BF00BF00BF00BF00BF87
:1001800000BFF1D17047000070B505460C46164619
:1001900002E00FCC0FC5103E102EFAD2082E02D36B
:1001A00003CC03C5083E042E07D301CC01C5361F7E
:1001B00003E021782970641C6D1C761EF9D270BD95
:1001C0007AA000F061FA00BFFEE700B587B01C22FC
:1001D00080496846FFF7D8FF7FA000F055FA042059
:1001E000019005200290062003901B200490694690
:1001F000002000F0AFFA07B000BD31B50025684619
:100200000078012827D17FA000F03EFA694648888F
:1002100001210D4600BF2C46002C05D100BF84A251
:10022000DC210020FFF7CCFF00BF012083490870CC
:1002300083A000F029FA002405E08849085D00F059
:1002400018FA601CC4B268464088A042F5DC84A05D
:1002500000F01AFA00E000BF00BF38BD10B5034639
:1002600080241C70002003E000240C54441CA0B225
:100270009042F9DB10BDF7B582B0044615462A4618
:1002800020460399FFF7EAFF00952A462146002001
:10029000039B00F063FA064600BF3746002F06D0E6
:1002A00000BF63A2FF211B313846FFF789FF00BF63
:1002B00005B0F0BD08B500200323122201210090F3
:1002C000132000F0F1F90220032105221207072371
:1002D0001B02D2188300D15000BF00BF62A000F003
:1002E000D3F900BF022000F05CF8022000F054F8BF
:1002F00051E000F093F90446204600F0BAF940A01E
:1003000000F0C2F9022000F047F87D20C00000F0A4
:1003100013FA022000F045F87D20C00000F00CFA2E
:10032000712C01D0512C01D100BFFEE7312C01D03E
:100330002B2C03D1022000F02FF806E0302C01D046
:100340002D2C02D1022000F02CF84FA000F09CF9D7
:10035000FFF73BFF054600BF2E46002E06D000BF2C
:1003600033A2FF217F313046FFF72AFF00BF4D49FE
:10037000002000F02CFA3148007800280AD0012033
:100380002E49087048A000F07FF9102233495248E6
:10039000FFF771FF00BFACE7012181404F4A916038
:1003A0007047012181404D4AD16070470A0D41706C
:1003B00070204572726F72206F6E20617373657268
:1003C00074696F6E2E2E2E095B4641494C5552457D
:1003D0005D0D0A00D00700000D0A535049204D6101
:1003E0007374657220646566696E696E67206174F6
:1003F000203020496E6465782E2E2E095B4F4B5DB0
:100400000D0A00000D0A535049204D617374657246
:10041000207472616E7366657220436F6D706C65D7
:100420007465642E2E2E095B4F4B5D0D0A00000093
:100430002E2E5C6D61696E2E6300000000000020AE
:100440000D0A535049204D617374657220646174C4
:100450006120726563762E2E2E09000018000020A0
:100460000D0A0D0A00000000200A0D44656D6F4161
:100470007070205374617274696E672E2E2E095B42
:100480004F4B5D0D0A2000000A0D4144584C20538B
:10049000504920696E69742E2E2E5B4F4B5D0D0AFC
:1004A00000000000FB0100000A0D4144584C20539D
:1004B000504920646174612073656E6420726563C5
:1004C0007620696E697469617465642E2E2E095BED
:1004D0004F4B5D0D0A000000080000200005005091
:1004E00003210C4802680A4302600B4802680A4371
:1004F00002600A4880470A480047FEE7FEE7FEE739
:10050000FEE7FEE7FEE7000006480749074A084BFA
:10051000704700002405004054050040D905000044
:10052000C1000000880000208810002088080020FA
:100530008808002032483349086070473248008CF0
:10054000C0B2012812D13048808C0007000F00286B
:100550000CD12D48806AF0210840402806D12A4855
:10056000C06A0840002801D1012070470020FCE744
:100570002548008CC0B201282CD12348808C00076C
:10058000000F002826D12048806AF021084000286A
:1005900006D11D48C06A0840002801D101207047DB
:1005A0001948806AF0210840102806D11648C06A10
:1005B0000840002801D10120F1E71348806AF021AA
:1005C0000840302806D11048C06A0840002801D1F0
:1005D0000120E4E70020E2E710B5FFF7C9FF00289B
:1005E00005D00A480A494860C8130A498861FFF7DC
:1005F000A5FF002802D001200749886010BD000037
:100600000024F40004000020C00F00F0DFFF07C04A
:1006100000050040006C00400006004000BF42485A
:1006200080680128FBD100203F4988603F488069ED
:10063000C0B2704770B504460D4601260AE0204658
:10064000641E002804DB7D20C000FFF77DFD01E073
:10065000002603E0344880680128F0D100BF002C58
:1006600005DB0020304988603048806928703046BA
:1006700070BD2E49C86100BF2B49C9690129FBD152
:100680000021294AD161704730B50346002528462C
:100690006D1C1C5C05E02046FFF7EBFF28466D1C37
:1006A0001C5C002CF7D130BDF8B507460C4615464A
:1006B0001E46204600F025F80021304600F02AF8BA
:1006C0001A48C4604661069800280DD0384600F0EC
:1006D00018F80021284600F01DF8144805618760CD
:1006E000012012494031C862114810494862042073
:1006F000086001200F498860086000200A4988606E
:10070000F8BD03210522120707231B02D21883001C
:10071000D150704710B58A0005231B070724240217
:100720001B1984001A5110BD002100400025004013
:1007300000509D000020004001B505E00098401EDB
:1007400000900348FFF710FD00980028F6D108BD7F
:10075000E7030000024606207047704730B50546A3
:10076000039C062030BD704770477047754600F007
:1007700023F8AE46050069465346C008C0008546CA
:1007800018B020B5FFF7C0FE60BC00274908B64688
:100790000026C0C5C0C5C0C5C0C5C0C5C0C5C0C590
:1007A000C0C5403D49008D4670470446C046C0461E
:1007B0002046FFF7C3FC00000048704728000020D7
:1007C00001491820ABBEFEE72600020070477047C3
:1007D00000000010FFFFFFFFFFFFFFFFFFFFFFFF15
:1007E000FFFFFFFF0300000001000000FC07000006
:1007F00000000020080000000401000001000000CB
:040800000024F400DC
:04000005000000C136
:00000001FF
