:020000040000FA
:10000000B81000203D030000570300005903000012
:1000100000000000000000000000000000000000E0
:100020000000000000000000000000005B03000072
:1000300000000000000000005D0300005F030000FE
:10004000610300006103000061030000D9050000A6
:100050006103000000000000610300006103000074
:100060006103000061030000610300006103000000
:1000700061030000610300006103000061030000F0
:1000800061030000610300006103000061030000E0
:1000900061030000610300006103000061030000D0
:1000A0006103000061030000000000000000000088
:1000B0000000000000000000000000000000000040
:1000C00000F002F800F031F80CA030C8083824180D
:1000D0002D18A246671EAB4654465D46AC4201D180
:1000E00000F023F87E460F3E0FCCB6460126334281
:1000F00000D0FB1AA246AB4633431847280D000038
:10010000380D0000103A02D378C878C1FAD85207E7
:1001100001D330C830C101D504680C6070471FB5E9
:10012000C046C0461FBD10B510BD00F008FE114608
:10013000FFF7F5FF00F0B8F800F020FE03B4FFF77A
:10014000F2FF03BC00F024FE401E00BF00BF00BF52
:1001500000BF00BF00BF00BF00BF00BF00BF00BFA7
:1001600000BFF1D17047000070B505460C46164639
:1001700002E00FCC0FC5103E102EFAD2082E02D38B
:1001800003CC03C5083E042E07D301CC01C5361F9E
:1001900003E021782970641C6D1C761EF9D270BDB5
:1001A0000A2000F0B3F800BFFEE700B587B01C22BC
:1001B00059496846FFF7D8FF0420019005200290B6
:1001C000062003901B2004906946002000F08BFA63
:1001D00007B000BD31B5002468460078012821D160
:1001E0004E4968464288002009E00D5C03466133B1
:1001F000DBB29D4201D0002304E0431C98B2904240
:10020000F3DB01231C4600BF2546002D05D100BFAE
:1002100043A282210020FFF7C3FF00BF0120434912
:10022000087000E000BF00BF38BD10B503460020D5
:1002300006E0044641341C5400240C54441CA0B273
:100240009042F6DB10BDFEB504460D46164632461A
:1002500029462046FFF7E9FF2B463246214600207B
:10026000009600F066FB019000BF019F002F05D0B3
:1002700000BF2BA2B2213846FFF792FF00BF092032
:100280000123834019462A4B5B68C340DA07D20F2B
:10029000002A02D1264B996001E0254BD96000BFAE
:1002A000642000F05DFCFEBD08200F2108E0032261
:1002B00005231B0707252D025B1985005A51401C99
:1002C0008842F4D900BF082000F020F8FFF76DFF46
:1002D000044600BF2546002D05D000BF10A2C32153
:1002E0002846FFF75DFF00BF1249002000F058FDCF
:1002F00000BF0E4800780028FBD000200B49087092
:10030000102206490C48FFF79EFFF2E701218140C9
:10031000074A916070470000D80D00001C000020C3
:100320002E2E5C6D61696E2E6300000000000020BF
:1003300000050050D50100000C00002003210C48EE
:1003400002680A4302600B4802680A4302600A48D6
:1003500080470A480047FEE7FEE7FEE7FEE7FEE7C4
:10036000FEE7000006480749074A084B70470000AF
:10037000240500405405004035040000C100000081
:10038000B8000020B8100020B8080020B8080020ED
:1003900032483349086070473248008CC0B20128A7
:1003A00012D13048808C0007000F00280CD12D4856
:1003B000806AF0210840402806D12A48C06A0840D7
:1003C000002801D1012070470020FCE72548008C5F
:1003D000C0B201282CD12348808C0007000F0028D0
:1003E00026D12048806AF0210840002806D11D4807
:1003F000C06A0840002801D1012070471948806A6E
:10040000F0210840102806D11648C06A084000288C
:1004100001D10120F1E71348806AF021084030281B
:1004200006D11048C06A0840002801D10120E4E745
:100430000020E2E710B5FFF7C9FF002805D00A4801
:100440000A494860C8130A498861FFF7A5FF0028D8
:1004500002D001200749886010BD00000024F4008C
:1004600004000020C00F00F0DFFF07C000050040BF
:10047000006C004000060040F8B504460D461646E4
:1004800000BF002C01D0012000E000200746002F13
:1004900005D100BFF1A2B121FFF782FE00BF00BF6E
:1004A000206A002809D0F848006800906846057066
:1004B0004680216A0098884700BFF8BD70B50446A1
:1004C0000D4600BF002C01D0012000E000200646B0
:1004D000002E05D100BFE1A2A321FFF761FE00BFFE
:1004E00000BF00BF002D01D0012000E00020064623
:1004F000002E05D100BFD9A2A421FFF751FE00BFF5
:1005000000BF00202060288070BD70B5044600BF89
:10051000002C01D0012000E000200646002E05D16D
:1005200000BFCEA2DA21FFF73BFE00BF00BF608B09
:10053000401C60832520005D002807D10121252073
:100540000155628B00212046FFF796FF20680521A8
:10055000090240188069C5B22069002808D0E08AE5
:10056000A18A884204DAE08A411CE18221690D54A3
:10057000E089218B884213DAA068002807D0E0893F
:10058000A189884203DAA068E189405C00E000208C
:100590002168052212028918C861E089401CE081A7
:1005A000608B218B884216DB207F00F069FAE68998
:1005B00021460C31081FFFF781FF21461431081F27
:1005C000FFF77CFF022124200155324601212046FD
:1005D000FFF752FF00BF70BD10B5AC48806801281E
:1005E0000FD1AB48406804210840002809D0002002
:1005F000A649886000F04EFA04462046FFF785FFC2
:1006000000BF10BDFFB581B005460E46144600BFC1
:10061000002C01D0012000E000200746002F05D16A
:1006200000BF8EA27321FFF7BBFD00BF00BF256096
:1006300026710020A060A081E0812061A082E0827C
:10064000608320832077206200212420015525200B
:1006500001556846017C2620015505B0F0BDFFB567
:1006600081B0044615461E460A9F00BF002D01D0EA
:10067000012000E0002000900098002805D100BF74
:1006800076A29421FFF78CFD00BF00BF00BF002EB3
:1006900001D0012000E0002000900098002805D142
:1006A00000BF6EA29521FFF77BFD00BF00BF00BF1A
:1006B000002F01D0012000E00020009000980028C9
:1006C00005D100BF65A29621FFF76AFD00BF00BFFC
:1006D0002C60002C01D0029800E000203080002027
:1006E000388005B0F0BDF8B506460C46002C01D1A7
:1006F0000E20F8BD304600F0CDF9054600BF002DB4
:1007000001D0012000E000200746002F06D100BFE5
:1007100052A2FF211531FFF743FD00BF00BF002E9D
:100720000CD1E07E002801D0012000E0002003462B
:100730002A4603215748FFF765FF00E000BF00BFCE
:10074000206900F09DF9206900F091F9206900F01E
:1007500097F9606800F08BF9E06800F088F90021F3
:10076000A0688A0005231B0707273F02DB198700C3
:10077000DA5100BF207C28776068296805221202C0
:1007800089188860E06829688918C860A0682968A5
:10079000891808612068296889184862A07E40008D
:1007A000617E89000843217E0843296889184865CD
:1007B00000212868FF300130816000BF04202856E6
:1007C00000F014FA0746002F07D000BF23A2FF2134
:1007D00044313846FFF7E4FC00BF00BF00BF217D75
:1007E0000420285600F00EFA0746002F07D000BF5D
:1007F0001AA2FF2145313846FFF7D2FC00BF00BFE7
:100800000020286204202968032212028918486007
:1008100000BF285600F0B2F90746002F07D000BFEE
:100820000EA2FF214C313846FFF7BAFC00BF00BFD3
:10083000012029680522120289180860022124205B
:100840004155002055E770B50646304600F022F9C4
:10085000044600BF002C1FD001201EE02E2E5C2E6F
:100860002E5C2E2E5C2E2E5C536F757263655C734E
:1008700070695F6D61737465725C7370695F6D61DF
:10088000737465722E630000F40D000000310040A7
:10089000003300400030004000200546002D06D106
:1008A00000BFA14AFF216031FFF77AFC00BF00BF03
:1008B00000BF0420205600F099F90546002D07D00E
:1008C00000BF994AFF2163312846FFF769FC00BF4A
:1008D00000BF00BF0420205600F05BF90546002D44
:1008E00007D000BF904AFF2164312846FFF758FC2B
:1008F00000BF00BF0020216805221202891808608D
:10090000207F00F0C2F8FF2020770020C04321683C
:10091000052212028918886021688918C860216838
:10092000891808610023224619461846FFF76AFE17
:1009300070BDFFB583B01546039800F0ABF80446D0
:1009400000BF002C01D0012000E000200746002F4E
:1009500006D100BF744AFF219C31FFF721FC00BF84
:1009600000BF00200290002601902620005D002894
:100970000FD000BF01A800F07FF90746002F07D075
:1009800000BF694AFF21A7313846FFF709FC00BFC5
:1009900010E000BF0420205600F0FBF80746002FAF
:1009A00007D000BF604AFF21AC313846FFF7F8FBA3
:1009B00000BF00BF2420005D02282DD10C98A84262
:1009C00001DD0C9800E028460646002E21DD0121BD
:1009D0002420015500206083002125200155268315
:1009E00020460E30831E821F294600900498FFF790
:1009F00036FE20461630831E821F00900C99069802
:100A0000FFF72DFE207F00F040F8204600F04CF864
:100A100004E00720029001E0112002902620005DF2
:100A2000002810D000BF6846007900F036F907466C
:100A3000002F07D000BF3C4AFF21D8313846FFF7CE
:100A4000AFFB00BF10E000BF0420205600F096F876
:100A50000746002F07D000BF334AFF21DD3138465B
:100A6000FFF79EFB00BF00BF029807B0F0BD032157
:100A70000522120707231B02D2188300D1507047AA
:100A800001218140294A9160704701218140274A14
:100A9000D16070470146012904DA28204843244ADE
:100AA000801870470020FCE770B5044600BF002C9A
:100AB00001D0012000E000200546002D05D100BF37
:100AC0001CA2C221FFF76CFB00BF00BFA06800287A
:100AD00007D0E089A189884203DAA068E189405CF7
:100AE00000E000202168052212028918C861E0890F
:100AF000401CE081E089218B884213DAA06800283D
:100B000007D0E089A189884203DAA068E189405CC6
:100B100000E000202168052212028918C861E089DE
:100B2000401CE08170BD00005C0800000005005022
:100B30002C0000202E2E5C2E2E5C2E2E5C2E2E5C89
:100B4000536F757263655C7370695F6D6173746513
:100B5000725C7370695F6D61737465722E630000FF
:100B600001B505E00098401E00900348FFF7ECFA3D
:100B700000980028F6D108BDE7030000014600BF39
:100B8000CA06D20E01209040664A106000BF0020C5
:100B90007047014600BFCA06D20E01209040614A4C
:100BA0008032106000BF0020704730B50246002937
:100BB0000FD010465C4B1B68C506ED0E0124AC40FF
:100BC0002340002B01D0012300E000230B60002014
:100BD00030BD0E20FCE7014600BFCA06D20E012040
:100BE0009040514A106000BF00207047014600BF8E
:100BF000CA06D20E012090404B4A8032106000BFDE
:100C00000020704770B504460D462946204600F086
:100C100051F8002070BD10B5024600291ED01046C4
:100C200000280CDA414B0407240F083CA408A40058
:100C30001B598407E40EE3401B069B0F0BE0394B66
:100C4000032424021B198408A4001B598407E40E02
:100C5000E3401B069B0F0B70002010BD0E20FCE72D
:100C600000BFBFF34F8F324830491C39C860BFF313
:100C70004F8F00BF00BFFEE7014672B62D480078D7
:100C8000002801D0012000E00020087029480078E9
:100C9000401C284A10700020704701462548007803
:100CA000401E244A1070002902D10020107062B644
:100CB0000020704710B5002819DA1C4A03071B0FE3
:100CC000083B9B089B00D2588307DC0EFF23A34000
:100CD0009A438B071B0E8407E40EA3401A43134B61
:100CE0000407240F083CA408A4001A5118E00D4A78
:100CF00003231B02D21883089B00D2588307DC0E03
:100D0000FF23A3409A438B071B0E8407E40EA340E6
:100D10001A43044B032424021B198408A4001A510B
:100D200010BD000000E100E000E200E01CED00E08A
:100D30000400FA05080000207047704770477546A8
:100D400000F022F8AE46050069465346C008C000D0
:100D5000854618B020B5FFF705FB60BC00274908A1
:100D6000B6460026C0C5C0C5C0C5C0C5C0C5C0C543
:100D7000C0C5C0C5403D49008D4670470446C046C9
:100D8000C0462046FFF7DAF90048704754000020BB
:100D900001491820ABBEFEE72600020070470000A4
:100DA000F8B506460C463046FFF774FE054600BF10
:100DB000002D01D0012000E000200746002F06D1C1
:100DC00000BF044AFF218C31FFF7EAF900BF00BFE2
:100DD0002C62F8BDF80D000000000010FFFFFFFFBF
:100DE000FFFFFFFFFFFFFFFFFFFFFFFF030000000C
:100DF00001000000020000002E2E5C2E2E5C2E2E24
:100E00005C2E2E5C536F757263655C7370695F6DE9
:100E100061737465725C7370695F6D617374657220
:100E20002E630000340E0000000000200C000000C3
:100E300004010000010000000024F4000000000094
:04000005000000C136
:00000001FF
