:020000040000FA
:1000000068100020D9010000F3010000F501000094
:1000100000000000000000000000000000000000E0
:10002000000000000000000000000000F7010000D8
:100030000000000000000000F9010000FB010000CA
:10004000FD010000FD010000FD010000FD010000B8
:10005000FD01000000000000FD010000FD010000A6
:10006000FD010000FD010000FD010000FD01000098
:10007000FD010000FD010000FD010000FD01000088
:10008000FD010000FD010000FD010000FD01000078
:10009000FD010000FD010000FD010000FD01000068
:1000A000FD010000FD010000000000000000000054
:1000B0000000000000000000000000000000000040
:1000C00000F002F800F031F80CA030C8083824180D
:1000D0002D18A246671EAB4654465D46AC4201D180
:1000E00000F023F87E460F3E0FCCB6460126334281
:1000F00000D0FB1AA246AB46334318479C030000CE
:10010000AC030000103A02D378C878C1FAD852077D
:1001100001D330C830C101D504680C6070471FB5E9
:10012000C046C0461FBD10B510BD00F084F9114691
:10013000FFF7F5FF00F018F800F09CF903B4FFF7A3
:10014000F2FF03BC00F0A0F9401E00BF00BF00BFDB
:1001500000BF00BF00BF00BF00BF00BF00BF00BFA7
:1001600000BFF1D17047000008B500201023122213
:1001700011210090132000F013F90820032105221B
:10018000120707231B02D2188300D15000BF00BF03
:100190000BA000F0F5F800BF11E000F0BBF804463A
:1001A000204600F0E2F8712C01D0512C06D100BF9E
:1001B00006A000F0E5F800BF00BFFEE700BFECE7D7
:1001C000200A0D53746172743A200000200A0D4514
:1001D000786974210A0D000003210C4802680A4363
:1001E00002600B4802680A4302600A4880470A48D6
:1001F0000047FEE7FEE7FEE7FEE7FEE7FEE700005A
:1002000006480749074A084B70470000240500408C
:1002100054050040D1020000C10000006800002029
:100220006810002068080020680800203248334920
:10023000086070473248008CC0B2012812D13048A3
:10024000808C0007000F00280CD12D48806AF02117
:100250000840402806D12A48C06A0840002801D139
:10026000012070470020FCE72548008CC0B201281F
:100270002CD12348808C0007000F002826D120486D
:10028000806AF0210840002806D11D48C06A084055
:10029000002801D1012070471948806AF0210840E8
:1002A000102806D11648C06A0840002801D1012054
:1002B000F1E71348806AF0210840302806D1104841
:1002C000C06A0840002801D10120E4E70020E2E7ED
:1002D00010B5FFF7C9FF002805D00A480A49486051
:1002E000C8130A498861FFF7A5FF002802D0012042
:1002F0000749886010BD00000024F40000000020C1
:10030000C00F00F0DFFF07C000050040006C004098
:100310000006004000BF424880680128FBD1002051
:100320003F4988603F488069C0B2704770B5044655
:100330000D4601260AE02046641E002804DB7D20CD
:10034000C000FFF701FF01E0002603E034488068A9
:100350000128F0D100BF002C05DB00203049886067
:10036000304880692870304670BD2E49C86100BF92
:100370002B49C9690129FBD10021294AD161704764
:1003800030B50346002528466D1C1C5C05E0204660
:10039000FFF7EBFF28466D1C1C5C002CF7D130BD2D
:1003A000F8B507460C4615461E46204600F025F8CF
:1003B0000021304600F02AF81A48C46046610698C9
:1003C00000280DD0384600F018F80021284600F02B
:1003D0001DF8144805618760012012494031C86248
:1003E0001148104948620420086001200F498860C4
:1003F000086000200A498860F8BD03210522120721
:1004000007231B02D2188300D150704710B58A0011
:1004100005231B07072424021B1984001A5110BD51
:10042000002100400025004000509D0000200040B9
:10043000704770477047754600F022F8AE460500D9
:1004400069465346C008C000854618B020B5FFF77E
:10045000D7FE60BC00274908B6460026C0C5C0C507
:10046000C0C5C0C5C0C5C0C5C0C5C0C5403D4900A8
:100470008D4670470446C046C0462046FFF75EFEE4
:10048000004870470400002001491820ABBEFEE779
:100490002600020070470000A804000000000020B1
:0C04A00004000000040100000024F4002F
:04000005000000C136
:00000001FF
