:020000040000FA
:1000000068100020C5020000DF020000E1020000CD
:1000100000000000000000000000000000000000E0
:10002000000000000000000000000000E3020000EB
:100030000000000000000000E5020000E7020000F0
:10004000E9020000E9020000E9020000E902000004
:10005000E902000000000000E9020000E9020000DF
:10006000E9020000E9020000E9020000E9020000E4
:10007000E9020000E9020000E9020000E9020000D4
:10008000E9020000E9020000E9020000E9020000C4
:10009000E9020000E9020000E9020000E9020000B4
:1000A000E9020000E902000000000000000000007A
:1000B0000000000000000000000000000000000040
:1000C00000F002F800F031F80CA030C8083824180D
:1000D0002D18A246671EAB4654465D46AC4201D180
:1000E00000F023F87E460F3E0FCCB6460126334281
:1000F00000D0FB1AA246AB4633431847D80800008D
:10010000E8080000103A02D378C878C1FAD852073C
:1001100001D330C830C101D504680C6070471FB5E9
:10012000C046C0461FBD10B510BD00F01AFC1146F8
:10013000FFF7F5FF00F028F800F032FC03B4FFF7FA
:10014000F2FF03BC00F036FC401E00BF00BF00BF42
:1001500000BF00BF00BF00BF00BF00BF00BF00BFA7
:1001600000BFF1D170470000401E00BF00BF00BFBC
:1001700000BF00BF00BF00BF00BF00BF00BF00BF87
:1001800000BFF1D1704700000EB5FF20913000F0A4
:10019000D7FB00200290012501900198002805D18D
:1001A000FF222946464800F06AF813E0E8006A1C7E
:1001B000D200511E0022009209E0009A920005230D
:1001C0001B0707273F02DB198700DA51401C8842D2
:1001D000F3D900BF00BF00F057F9002805D1552121
:1001E000012000F04EF800BFFEE7202000F057FB92
:1001F0000646072000F0AFFA0446002E07D1002C77
:1002000005D15F21012000F03CF800BFFEE735E09A
:10021000002C1CD00298002803D100F0BDFA0290F7
:1002200015E000F0C2FA002811D0002002906946C3
:1002300001A800F0C6FA002808D07F21012000F0B4
:1002400034F868460179012000F025F800BF002E3F
:1002500014D001A9412000F046FB00280DD08021D8
:10026000012000F022F868460079C007C00F00287E
:1002700003D18021012000F00EF800BFC8E74254EE
:10028000704770B504460D462A4621460C4814387E
:10029000FFF7F5FF70BD70B504460D462A462146AE
:1002A00007481038FFF7EBFF70BD70B504460D46E8
:1002B0002A46214602480C38FFF7E1FF70BD0000D6
:1002C0001805005003210C4802680A4302600B48DD
:1002D00002680A4302600A4880470A480047FEE76E
:1002E000FEE7FEE7FEE7FEE7FEE7000006480749F7
:1002F000074A084B704700002405004054050040A1
:10030000BD030000C100000068000020681000204C
:1003100068080020680800203248334908607047A8
:100320003248008CC0B2012812D13048808C0007BE
:10033000000F00280CD12D48806AF0210840402889
:1003400006D12A48C06A0840002801D10120704720
:100350000020FCE72548008CC0B201282CD123489E
:10036000808C0007000F002826D12048806AF021E9
:100370000840002806D11D48C06A0840002801D165
:10038000012070471948806AF0210840102806D1E2
:100390001648C06A0840002801D10120F1E713483F
:1003A000806AF0210840302806D11048C06A084011
:1003B000002801D10120E4E70020E2E710B5FFF7B3
:1003C000C9FF002805D00A480A494860C8130A49ED
:1003D0008861FFF7A5FF002802D001200749886047
:1003E00010BD00000024F40000000020C00F00F049
:1003F000DFFF07C000050040006C00400006004021
:1004000070B500BF0220C349886000BF00BF012053
:10041000886000BF0420FFF797FEBE480069800790
:10042000C00F002807D0BB480069C007C00F0028D4
:1004300001D0012426E0B7480069C007C00F00289A
:100440001FD00024122517E000BF0120B149C86069
:1004500000BF0420FFF778FE00BF0120AD4988608F
:1004600000BF0420FFF770FEAA4800698007C00F94
:10047000002801D0012403E028466D1E0028E3D1A6
:1004800000E00024204670BD10B500BFA248052141
:100490000907072212028918486000BF00BF9F4960
:1004A000086000BF00BF01209A49886000BF00BFFC
:1004B000886100BF00BF0220886000BF00BF886164
:1004C00000BFFFF79DFF10BD10B500BF012091498F
:1004D000886000BF0420FFF737FE00BF8D48006929
:1004E000C007C00F0028F9D0012010BD10B500BF13
:1004F00002208849C86000BF0420FFF725FEFFF7EF
:10050000E3FF002800D110BD00BF022081498860B0
:1005100000BF0420FFF718FE0120F4E770B506467F
:10052000012400BF02207B49886100BF80251CE0B8
:1005300000BF01207749C86000BF0420FFF704FE18
:1005400030462840002804D000BF0220714988604E
:1005500004E000BF02206F49C86000BFFFF7B4FF8E
:10056000002801D1002402E06D08002DE0D100BF79
:1005700000BF01206749C86000BF0420FFF7E4FD09
:1005800000BF02206349C86100BF0420FFF7DCFD03
:10059000FFF79AFF04405F48006940080121484086
:1005A000044000BF01205B49C86000BF0420FFF782
:1005B000CBFD00BF02205749886100BF204670BDB7
:1005C000F8B505460E4600270120009000BF022026
:1005D0005049C86100BF802417E0FFF775FF00286D
:1005E00001D1009013E04B4800698007C00F00283C
:1005F00002D038462043074600BF01204549C86065
:1006000000BF0420FFF7A0FD6408002CE5D100BF67
:1006100000BF02203F49886100BF2F70002E02D02A
:1006200000BFC86004E000BF02203A49886000BFF4
:100630000420FFF789FDFFF747FF002800D1009055
:1006400000BF01203349C86000BF0420FFF77CFDD4
:100650000098F8BD10B500BF02202E49886000BF89
:100660000420FFF771FDFFF72FFF002800D110BD18
:1006700000BF02202749C86000BF0420FFF764FDC7
:1006800000BF01202349C86000BF0420FFF75CFDC4
:100690000120ECE7FFB581B007460D461646012460
:1006A000FFF7D8FF04403846FFF738FF0440F8074B
:1006B000C00F002816D00DE0002E05D100212846DD
:1006C000FFF77EFF044004E001212846FFF778FF92
:1006D00004406D1C3046711ECEB200280FD0002C95
:1006E000EAD10CE004E02878FFF718FF04406D1C05
:1006F0003046711ECEB2002801D0002CF3D10498F0
:10070000002801D1002C02D1FFF7F0FE0440204662
:1007100005B0F0BD000500500C06000000070050B9
:1007200008B500200090002301223849384800789D
:10073000FFF7B0FF00280BD035490978012211439B
:10074000084613466946FFF7A5FF002800D1009030
:100750006846007808BDF8B5044601256000903071
:100760002B490870FFF7DCFF0646002E11D0F0077A
:10077000C00F00280ED1AC216846017001214170E4
:1007800001230222694622480078FFF783FF0540D3
:1007900000E000252846F8BD10B501231A461D4982
:1007A0001B480078FFF776FF10BD10B5FFF7B8FFC4
:1007B000044680202040002801D0012010BD0020E8
:1007C000FCE7F8B504460D46002600230122124935
:1007D0000F480078FFF75EFF002815D00C49097814
:1007E000012211430846134602226946FFF752FFD1
:1007F000002808D06846007840B2207068464078EB
:1008000040B22870012600BF3046F8BDC309000081
:1008100004000020C5090000C4090000F8B5054621
:100820000E460124A220009000230122694641487F
:100830000078FFF72FFF0440002C0AD03D490978CB
:10084000012211430846134632462946FFF722FF8C
:1008500004402046F8BD3EB501240A216846FFF752
:10086000DDFF0440002008E06946095C324A125C62
:10087000914200D00024411CC8B20A28F4DB204673
:100880003EBD38B504460D466846047045700123E8
:100890000222694627480078FFF7FCFE38BDF8B50C
:1008A000054601246806000E2249087001263146DB
:1008B0005420FFF7E6FF044000273946FF20FFF7EA
:1008C000E0FF0440FFF7C7FF04402046F8BD08B52D
:1008D0001AA000680090012302226946154800789A
:1008E000FFF7D8FE08BD73B50D4601240023012291
:1008F000694610480078FFF7CDFE0440002C09D06F
:100900000C49097801221143084613462946FFF78E
:10091000C1FE044020467CBD10B50446214614208B
:10092000FFF7E1FF10BD10B5044621464220FFF756
:10093000A8FF10BD05000020C70900008F010000BE
:1009400001B505E00098401E00900348FFF70CFC3D
:1009500000980028F6D108BDE703000070477047F3
:100960007047754600F022F8AE46050069465346CA
:10097000C008C000854618B020B5FFF7B7FC60BCC2
:1009800000274908B6460026C0C5C0C5C0C5C0C5B9
:10099000C0C5C0C5C0C5C0C5403D49008D467047F3
:1009A0000446C046C0462046FFF7C8FB00487047D3
:1009B0000800002001491820ABBEFEE72600020017
:1009C000704717ACAAEE22544D313934342D3030F3
:1009D00032000000E40900000000002008000000D0
:0C09E000040100000024F40000000000EE
:04000005000000C136
:00000001FF
