:020000040000FA
:10000000681000204D020000670200006902000035
:1000100000000000000000000000000000000000E0
:100020000000000000000000000000006B02000063
:1000300000000000000000006D0200006F020000E0
:1000400071020000710200007102000071020000E4
:100050007102000000000000710200007102000047
:1000600071020000710200007102000071020000C4
:1000700071020000710200007102000071020000B4
:1000800071020000710200007102000071020000A4
:100090007102000071020000710200007102000094
:1000A000710200007102000000000000000000006A
:1000B0000000000000000000000000000000000040
:1000C00000F002F800F031F80CA030C8083824180D
:1000D0002D18A246671EAB4654465D46AC4201D180
:1000E00000F023F87E460F3E0FCCB6460126334281
:1000F00000D0FB1AA246AB46334318472C0400003D
:100100003C040000103A02D378C878C1FAD85207EC
:1001100001D330C830C101D504680C6070471FB5E9
:10012000C046C0461FBD10B510BD00F0CCF9114649
:10013000FFF7F5FF00F028F800F0E4F903B4FFF74B
:10014000F2FF03BC00F0E8F9401E00BF00BF00BF93
:1001500000BF00BF00BF00BF00BF00BF00BF00BFA7
:1001600000BFF1D170470000401E00BF00BF00BFBC
:1001700000BF00BF00BF00BF00BF00BF00BF00BF87
:1001800000BFF1D17047000008B500200323122200
:1001900001210090132000F03DF9022000F03AF810
:1001A000052000F037F800BF24A000F023F900BFBD
:1001B000022000F03DF8052000F03AF829E000F0B8
:1001C000E3F80446204600F00AF9052000F02BF879
:1001D0007D20C00000F066F9052000F029F87D20A0
:1001E000C00000F05FF9712C01D0512C01D100BF8B
:1001F000FEE7312C01D02B2C03D1022000F013F8A4
:1002000006E0302C01D02D2C02D1022000F010F895
:1002100000BFD4E703210522120707231B02D218CF
:100220008300D150704701218140074A9160704797
:1002300001218140044AD16070470000200A0D531B
:10024000746172743A2000000005005003210C48CC
:1002500002680A4302600B4802680A4302600A48C7
:1002600080470A480047FEE7FEE7FEE7FEE7FEE7B5
:10027000FEE7000006480749074A084B70470000A0
:10028000240500405405004045030000C100000063
:10029000680000206810002068080020680800201E
:1002A00032483349086070473248008CC0B2012898
:1002B00012D13048808C0007000F00280CD12D4847
:1002C000806AF0210840402806D12A48C06A0840C8
:1002D000002801D1012070470020FCE72548008C50
:1002E000C0B201282CD12348808C0007000F0028C1
:1002F00026D12048806AF0210840002806D11D48F8
:10030000C06A0840002801D1012070471948806A5E
:10031000F0210840102806D11648C06A084000287D
:1003200001D10120F1E71348806AF021084030280C
:1003300006D11048C06A0840002801D10120E4E736
:100340000020E2E710B5FFF7C9FF002805D00A48F2
:100350000A494860C8130A498861FFF7A5FF0028C9
:1003600002D001200749886010BD00000024F4007D
:1003700000000020C00F00F0DFFF07C000050040B4
:10038000006C00400006004000BF42488068012821
:10039000FBD100203F4988603F488069C0B2704768
:1003A00070B504460D4601260AE02046641E00286A
:1003B00004DB7D20C000FFF7C7FE01E0002603E05C
:1003C000344880680128F0D100BF002C05DB0020F4
:1003D00030498860304880692870304670BD2E49A9
:1003E000C86100BF2B49C9690129FBD10021294AF5
:1003F000D161704730B50346002528466D1C1C5C52
:1004000005E02046FFF7EBFF28466D1C1C5C002C26
:10041000F7D130BDF8B507460C4615461E462046B6
:1004200000F025F80021304600F02AF81A48C46090
:100430004661069800280DD0384600F018F80021D3
:10044000284600F01DF81448056187600120124914
:100450004031C862114810494862042008600120F8
:100460000F498860086000200A498860F8BD0321B0
:100470000522120707231B02D2188300D1507047B0
:1004800010B58A0005231B07072424021B198400CA
:100490001A5110BD002100400025004000509D0071
:1004A0000020004001B505E00098401E0090034880
:1004B000FFF75AFE00980028F6D108BDE7030000B8
:1004C000704770477047754600F022F8AE46050049
:1004D00069465346C008C000854618B020B5FFF7EE
:1004E000C9FE60BC00274908B6460026C0C5C0C585
:1004F000C0C5C0C5C0C5C0C5C0C5C0C5403D490018
:100500008D4670470446C046C0462046FFF716FE9B
:10051000004870470400002001491820ABBEFEE7E8
:10052000260002007047000038050000000000208F
:0C05300004000000040100000024F4009E
:04000005000000C136
:00000001FF
